{
	"contracts/TreasuryManagement.sol": {
		"TreasuryManagement": {
			"abi": [
				{
					"inputs": [],
					"stateMutability": "nonpayable",
					"type": "constructor"
				},
				{
					"anonymous": false,
					"inputs": [
						{
							"indexed": false,
							"internalType": "uint256",
							"name": "amount",
							"type": "uint256"
						}
					],
					"name": "FundsDeposited",
					"type": "event"
				},
				{
					"anonymous": false,
					"inputs": [
						{
							"indexed": false,
							"internalType": "uint256",
							"name": "amount",
							"type": "uint256"
						}
					],
					"name": "FundsWithdrawn",
					"type": "event"
				},
				{
					"inputs": [],
					"name": "admin",
					"outputs": [
						{
							"internalType": "address",
							"name": "",
							"type": "address"
						}
					],
					"stateMutability": "view",
					"type": "function"
				},
				{
					"inputs": [],
					"name": "depositFunds",
					"outputs": [],
					"stateMutability": "payable",
					"type": "function"
				},
				{
					"inputs": [],
					"name": "funds",
					"outputs": [
						{
							"internalType": "uint256",
							"name": "",
							"type": "uint256"
						}
					],
					"stateMutability": "view",
					"type": "function"
				},
				{
					"inputs": [
						{
							"internalType": "uint256",
							"name": "_amount",
							"type": "uint256"
						}
					],
					"name": "withdrawFunds",
					"outputs": [],
					"stateMutability": "nonpayable",
					"type": "function"
				}
			],
			"devdoc": {
				"kind": "dev",
				"methods": {},
				"version": 1
			},
			"evm": {
				"assembly": "    /* \"contracts/TreasuryManagement.sol\":61:790  contract TreasuryManagement {... */\n  mstore(0x40, 0x80)\n    /* \"contracts/TreasuryManagement.sol\":240:291  constructor() {... */\n  callvalue\n  dup1\n  iszero\n  tag_1\n  jumpi\n  0x00\n  dup1\n  revert\ntag_1:\n  pop\n    /* \"contracts/TreasuryManagement.sol\":273:283  msg.sender */\n  caller\n    /* \"contracts/TreasuryManagement.sol\":265:270  admin */\n  0x00\n  dup1\n    /* \"contracts/TreasuryManagement.sol\":265:283  admin = msg.sender */\n  0x0100\n  exp\n  dup2\n  sload\n  dup2\n  0xffffffffffffffffffffffffffffffffffffffff\n  mul\n  not\n  and\n  swap1\n  dup4\n  0xffffffffffffffffffffffffffffffffffffffff\n  and\n  mul\n  or\n  swap1\n  sstore\n  pop\n    /* \"contracts/TreasuryManagement.sol\":61:790  contract TreasuryManagement {... */\n  dataSize(sub_0)\n  dup1\n  dataOffset(sub_0)\n  0x00\n  codecopy\n  0x00\n  return\nstop\n\nsub_0: assembly {\n        /* \"contracts/TreasuryManagement.sol\":61:790  contract TreasuryManagement {... */\n      mstore(0x40, 0x80)\n      jumpi(tag_1, lt(calldatasize, 0x04))\n      shr(0xe0, calldataload(0x00))\n      dup1\n      0x155dd5ee\n      eq\n      tag_2\n      jumpi\n      dup1\n      0xc89f2ce4\n      eq\n      tag_3\n      jumpi\n      dup1\n      0xe2c41dbc\n      eq\n      tag_4\n      jumpi\n      dup1\n      0xf851a440\n      eq\n      tag_5\n      jumpi\n    tag_1:\n      0x00\n      dup1\n      revert\n        /* \"contracts/TreasuryManagement.sol\":434:661  function withdrawFunds(uint _amount) public onlyAdmin {... */\n    tag_2:\n      callvalue\n      dup1\n      iszero\n      tag_6\n      jumpi\n      0x00\n      dup1\n      revert\n    tag_6:\n      pop\n      tag_7\n      0x04\n      dup1\n      calldatasize\n      sub\n      dup2\n      add\n      swap1\n      tag_8\n      swap2\n      swap1\n      tag_9\n      jump\t// in\n    tag_8:\n      tag_10\n      jump\t// in\n    tag_7:\n      stop\n        /* \"contracts/TreasuryManagement.sol\":123:143  uint256 public funds */\n    tag_3:\n      callvalue\n      dup1\n      iszero\n      tag_11\n      jumpi\n      0x00\n      dup1\n      revert\n    tag_11:\n      pop\n      tag_12\n      tag_13\n      jump\t// in\n    tag_12:\n      mload(0x40)\n      tag_14\n      swap2\n      swap1\n      tag_15\n      jump\t// in\n    tag_14:\n      mload(0x40)\n      dup1\n      swap2\n      sub\n      swap1\n      return\n        /* \"contracts/TreasuryManagement.sol\":299:426  function depositFunds() public payable onlyAdmin {... */\n    tag_4:\n      tag_16\n      tag_17\n      jump\t// in\n    tag_16:\n      stop\n        /* \"contracts/TreasuryManagement.sol\":96:116  address public admin */\n    tag_5:\n      callvalue\n      dup1\n      iszero\n      tag_18\n      jumpi\n      0x00\n      dup1\n      revert\n    tag_18:\n      pop\n      tag_19\n      tag_20\n      jump\t// in\n    tag_19:\n      mload(0x40)\n      tag_21\n      swap2\n      swap1\n      tag_22\n      jump\t// in\n    tag_21:\n      mload(0x40)\n      dup1\n      swap2\n      sub\n      swap1\n      return\n        /* \"contracts/TreasuryManagement.sol\":434:661  function withdrawFunds(uint _amount) public onlyAdmin {... */\n    tag_10:\n        /* \"contracts/TreasuryManagement.sol\":723:728  admin */\n      0x00\n      dup1\n      sload\n      swap1\n      0x0100\n      exp\n      swap1\n      div\n      0xffffffffffffffffffffffffffffffffffffffff\n      and\n        /* \"contracts/TreasuryManagement.sol\":709:728  msg.sender == admin */\n      0xffffffffffffffffffffffffffffffffffffffff\n      and\n        /* \"contracts/TreasuryManagement.sol\":709:719  msg.sender */\n      caller\n        /* \"contracts/TreasuryManagement.sol\":709:728  msg.sender == admin */\n      0xffffffffffffffffffffffffffffffffffffffff\n      and\n      eq\n        /* \"contracts/TreasuryManagement.sol\":701:767  require(msg.sender == admin, \"Only admin can perform this action\") */\n      tag_24\n      jumpi\n      mload(0x40)\n      0x08c379a000000000000000000000000000000000000000000000000000000000\n      dup2\n      mstore\n      0x04\n      add\n      tag_25\n      swap1\n      tag_26\n      jump\t// in\n    tag_25:\n      mload(0x40)\n      dup1\n      swap2\n      sub\n      swap1\n      revert\n    tag_24:\n        /* \"contracts/TreasuryManagement.sol\":518:523  funds */\n      sload(0x01)\n        /* \"contracts/TreasuryManagement.sol\":507:514  _amount */\n      dup2\n        /* \"contracts/TreasuryManagement.sol\":507:523  _amount <= funds */\n      gt\n      iszero\n        /* \"contracts/TreasuryManagement.sol\":499:544  require(_amount <= funds, \"Not enough funds\") */\n      tag_28\n      jumpi\n      mload(0x40)\n      0x08c379a000000000000000000000000000000000000000000000000000000000\n      dup2\n      mstore\n      0x04\n      add\n      tag_29\n      swap1\n      tag_30\n      jump\t// in\n    tag_29:\n      mload(0x40)\n      dup1\n      swap2\n      sub\n      swap1\n      revert\n    tag_28:\n        /* \"contracts/TreasuryManagement.sol\":563:568  admin */\n      0x00\n      dup1\n      sload\n      swap1\n      0x0100\n      exp\n      swap1\n      div\n      0xffffffffffffffffffffffffffffffffffffffff\n      and\n        /* \"contracts/TreasuryManagement.sol\":555:578  payable(admin).transfer */\n      0xffffffffffffffffffffffffffffffffffffffff\n      and\n        /* \"contracts/TreasuryManagement.sol\":555:587  payable(admin).transfer(_amount) */\n      0x08fc\n        /* \"contracts/TreasuryManagement.sol\":579:586  _amount */\n      dup3\n        /* \"contracts/TreasuryManagement.sol\":555:587  payable(admin).transfer(_amount) */\n      swap1\n      dup2\n      iszero\n      mul\n      swap1\n      mload(0x40)\n      0x00\n      mload(0x40)\n      dup1\n      dup4\n      sub\n      dup2\n      dup6\n      dup9\n      dup9\n      call\n      swap4\n      pop\n      pop\n      pop\n      pop\n      iszero\n      dup1\n      iszero\n      tag_32\n      jumpi\n      returndatasize\n      0x00\n      dup1\n      returndatacopy\n      revert(0x00, returndatasize)\n    tag_32:\n      pop\n        /* \"contracts/TreasuryManagement.sol\":607:614  _amount */\n      dup1\n        /* \"contracts/TreasuryManagement.sol\":598:603  funds */\n      0x01\n      0x00\n        /* \"contracts/TreasuryManagement.sol\":598:614  funds -= _amount */\n      dup3\n      dup3\n      sload\n      tag_33\n      swap2\n      swap1\n      tag_34\n      jump\t// in\n    tag_33:\n      swap3\n      pop\n      pop\n      dup2\n      swap1\n      sstore\n      pop\n        /* \"contracts/TreasuryManagement.sol\":630:653  FundsWithdrawn(_amount) */\n      0x4a37b25aab49761ecf63117fe82b98d750917451133cf797507bc9fb5b96044a\n        /* \"contracts/TreasuryManagement.sol\":645:652  _amount */\n      dup2\n        /* \"contracts/TreasuryManagement.sol\":630:653  FundsWithdrawn(_amount) */\n      mload(0x40)\n      tag_35\n      swap2\n      swap1\n      tag_15\n      jump\t// in\n    tag_35:\n      mload(0x40)\n      dup1\n      swap2\n      sub\n      swap1\n      log1\n        /* \"contracts/TreasuryManagement.sol\":434:661  function withdrawFunds(uint _amount) public onlyAdmin {... */\n      pop\n      jump\t// out\n        /* \"contracts/TreasuryManagement.sol\":123:143  uint256 public funds */\n    tag_13:\n      sload(0x01)\n      dup2\n      jump\t// out\n        /* \"contracts/TreasuryManagement.sol\":299:426  function depositFunds() public payable onlyAdmin {... */\n    tag_17:\n        /* \"contracts/TreasuryManagement.sol\":723:728  admin */\n      0x00\n      dup1\n      sload\n      swap1\n      0x0100\n      exp\n      swap1\n      div\n      0xffffffffffffffffffffffffffffffffffffffff\n      and\n        /* \"contracts/TreasuryManagement.sol\":709:728  msg.sender == admin */\n      0xffffffffffffffffffffffffffffffffffffffff\n      and\n        /* \"contracts/TreasuryManagement.sol\":709:719  msg.sender */\n      caller\n        /* \"contracts/TreasuryManagement.sol\":709:728  msg.sender == admin */\n      0xffffffffffffffffffffffffffffffffffffffff\n      and\n      eq\n        /* \"contracts/TreasuryManagement.sol\":701:767  require(msg.sender == admin, \"Only admin can perform this action\") */\n      tag_37\n      jumpi\n      mload(0x40)\n      0x08c379a000000000000000000000000000000000000000000000000000000000\n      dup2\n      mstore\n      0x04\n      add\n      tag_38\n      swap1\n      tag_26\n      jump\t// in\n    tag_38:\n      mload(0x40)\n      dup1\n      swap2\n      sub\n      swap1\n      revert\n    tag_37:\n        /* \"contracts/TreasuryManagement.sol\":368:377  msg.value */\n      callvalue\n        /* \"contracts/TreasuryManagement.sol\":359:364  funds */\n      0x01\n      0x00\n        /* \"contracts/TreasuryManagement.sol\":359:377  funds += msg.value */\n      dup3\n      dup3\n      sload\n      tag_40\n      swap2\n      swap1\n      tag_41\n      jump\t// in\n    tag_40:\n      swap3\n      pop\n      pop\n      dup2\n      swap1\n      sstore\n      pop\n        /* \"contracts/TreasuryManagement.sol\":393:418  FundsDeposited(msg.value) */\n      0x7cb5d45c1071f219bd2da1ea101758715bd52f23f2a707f2d9a0387dea18d906\n        /* \"contracts/TreasuryManagement.sol\":408:417  msg.value */\n      callvalue\n        /* \"contracts/TreasuryManagement.sol\":393:418  FundsDeposited(msg.value) */\n      mload(0x40)\n      tag_42\n      swap2\n      swap1\n      tag_15\n      jump\t// in\n    tag_42:\n      mload(0x40)\n      dup1\n      swap2\n      sub\n      swap1\n      log1\n        /* \"contracts/TreasuryManagement.sol\":299:426  function depositFunds() public payable onlyAdmin {... */\n      jump\t// out\n        /* \"contracts/TreasuryManagement.sol\":96:116  address public admin */\n    tag_20:\n      0x00\n      dup1\n      sload\n      swap1\n      0x0100\n      exp\n      swap1\n      div\n      0xffffffffffffffffffffffffffffffffffffffff\n      and\n      dup2\n      jump\t// out\n        /* \"#utility.yul\":88:205   */\n    tag_44:\n        /* \"#utility.yul\":197:198   */\n      0x00\n        /* \"#utility.yul\":194:195   */\n      dup1\n        /* \"#utility.yul\":187:199   */\n      revert\n        /* \"#utility.yul\":334:411   */\n    tag_46:\n        /* \"#utility.yul\":371:378   */\n      0x00\n        /* \"#utility.yul\":400:405   */\n      dup2\n        /* \"#utility.yul\":389:405   */\n      swap1\n      pop\n        /* \"#utility.yul\":334:411   */\n      swap2\n      swap1\n      pop\n      jump\t// out\n        /* \"#utility.yul\":417:539   */\n    tag_47:\n        /* \"#utility.yul\":490:514   */\n      tag_65\n        /* \"#utility.yul\":508:513   */\n      dup2\n        /* \"#utility.yul\":490:514   */\n      tag_46\n      jump\t// in\n    tag_65:\n        /* \"#utility.yul\":483:488   */\n      dup2\n        /* \"#utility.yul\":480:515   */\n      eq\n        /* \"#utility.yul\":470:533   */\n      tag_66\n      jumpi\n        /* \"#utility.yul\":529:530   */\n      0x00\n        /* \"#utility.yul\":526:527   */\n      dup1\n        /* \"#utility.yul\":519:531   */\n      revert\n        /* \"#utility.yul\":470:533   */\n    tag_66:\n        /* \"#utility.yul\":417:539   */\n      pop\n      jump\t// out\n        /* \"#utility.yul\":545:684   */\n    tag_48:\n        /* \"#utility.yul\":591:596   */\n      0x00\n        /* \"#utility.yul\":629:635   */\n      dup2\n        /* \"#utility.yul\":616:636   */\n      calldataload\n        /* \"#utility.yul\":607:636   */\n      swap1\n      pop\n        /* \"#utility.yul\":645:678   */\n      tag_68\n        /* \"#utility.yul\":672:677   */\n      dup2\n        /* \"#utility.yul\":645:678   */\n      tag_47\n      jump\t// in\n    tag_68:\n        /* \"#utility.yul\":545:684   */\n      swap3\n      swap2\n      pop\n      pop\n      jump\t// out\n        /* \"#utility.yul\":690:1019   */\n    tag_9:\n        /* \"#utility.yul\":749:755   */\n      0x00\n        /* \"#utility.yul\":798:800   */\n      0x20\n        /* \"#utility.yul\":786:795   */\n      dup3\n        /* \"#utility.yul\":777:784   */\n      dup5\n        /* \"#utility.yul\":773:796   */\n      sub\n        /* \"#utility.yul\":769:801   */\n      slt\n        /* \"#utility.yul\":766:885   */\n      iszero\n      tag_70\n      jumpi\n        /* \"#utility.yul\":804:883   */\n      tag_71\n      tag_44\n      jump\t// in\n    tag_71:\n        /* \"#utility.yul\":766:885   */\n    tag_70:\n        /* \"#utility.yul\":924:925   */\n      0x00\n        /* \"#utility.yul\":949:1002   */\n      tag_72\n        /* \"#utility.yul\":994:1001   */\n      dup5\n        /* \"#utility.yul\":985:991   */\n      dup3\n        /* \"#utility.yul\":974:983   */\n      dup6\n        /* \"#utility.yul\":970:992   */\n      add\n        /* \"#utility.yul\":949:1002   */\n      tag_48\n      jump\t// in\n    tag_72:\n        /* \"#utility.yul\":939:1002   */\n      swap2\n      pop\n        /* \"#utility.yul\":895:1012   */\n      pop\n        /* \"#utility.yul\":690:1019   */\n      swap3\n      swap2\n      pop\n      pop\n      jump\t// out\n        /* \"#utility.yul\":1025:1143   */\n    tag_49:\n        /* \"#utility.yul\":1112:1136   */\n      tag_74\n        /* \"#utility.yul\":1130:1135   */\n      dup2\n        /* \"#utility.yul\":1112:1136   */\n      tag_46\n      jump\t// in\n    tag_74:\n        /* \"#utility.yul\":1107:1110   */\n      dup3\n        /* \"#utility.yul\":1100:1137   */\n      mstore\n        /* \"#utility.yul\":1025:1143   */\n      pop\n      pop\n      jump\t// out\n        /* \"#utility.yul\":1149:1371   */\n    tag_15:\n        /* \"#utility.yul\":1242:1246   */\n      0x00\n        /* \"#utility.yul\":1280:1282   */\n      0x20\n        /* \"#utility.yul\":1269:1278   */\n      dup3\n        /* \"#utility.yul\":1265:1283   */\n      add\n        /* \"#utility.yul\":1257:1283   */\n      swap1\n      pop\n        /* \"#utility.yul\":1293:1364   */\n      tag_76\n        /* \"#utility.yul\":1361:1362   */\n      0x00\n        /* \"#utility.yul\":1350:1359   */\n      dup4\n        /* \"#utility.yul\":1346:1363   */\n      add\n        /* \"#utility.yul\":1337:1343   */\n      dup5\n        /* \"#utility.yul\":1293:1364   */\n      tag_49\n      jump\t// in\n    tag_76:\n        /* \"#utility.yul\":1149:1371   */\n      swap3\n      swap2\n      pop\n      pop\n      jump\t// out\n        /* \"#utility.yul\":1377:1503   */\n    tag_50:\n        /* \"#utility.yul\":1414:1421   */\n      0x00\n        /* \"#utility.yul\":1454:1496   */\n      0xffffffffffffffffffffffffffffffffffffffff\n        /* \"#utility.yul\":1447:1452   */\n      dup3\n        /* \"#utility.yul\":1443:1497   */\n      and\n        /* \"#utility.yul\":1432:1497   */\n      swap1\n      pop\n        /* \"#utility.yul\":1377:1503   */\n      swap2\n      swap1\n      pop\n      jump\t// out\n        /* \"#utility.yul\":1509:1605   */\n    tag_51:\n        /* \"#utility.yul\":1546:1553   */\n      0x00\n        /* \"#utility.yul\":1575:1599   */\n      tag_79\n        /* \"#utility.yul\":1593:1598   */\n      dup3\n        /* \"#utility.yul\":1575:1599   */\n      tag_50\n      jump\t// in\n    tag_79:\n        /* \"#utility.yul\":1564:1599   */\n      swap1\n      pop\n        /* \"#utility.yul\":1509:1605   */\n      swap2\n      swap1\n      pop\n      jump\t// out\n        /* \"#utility.yul\":1611:1729   */\n    tag_52:\n        /* \"#utility.yul\":1698:1722   */\n      tag_81\n        /* \"#utility.yul\":1716:1721   */\n      dup2\n        /* \"#utility.yul\":1698:1722   */\n      tag_51\n      jump\t// in\n    tag_81:\n        /* \"#utility.yul\":1693:1696   */\n      dup3\n        /* \"#utility.yul\":1686:1723   */\n      mstore\n        /* \"#utility.yul\":1611:1729   */\n      pop\n      pop\n      jump\t// out\n        /* \"#utility.yul\":1735:1957   */\n    tag_22:\n        /* \"#utility.yul\":1828:1832   */\n      0x00\n        /* \"#utility.yul\":1866:1868   */\n      0x20\n        /* \"#utility.yul\":1855:1864   */\n      dup3\n        /* \"#utility.yul\":1851:1869   */\n      add\n        /* \"#utility.yul\":1843:1869   */\n      swap1\n      pop\n        /* \"#utility.yul\":1879:1950   */\n      tag_83\n        /* \"#utility.yul\":1947:1948   */\n      0x00\n        /* \"#utility.yul\":1936:1945   */\n      dup4\n        /* \"#utility.yul\":1932:1949   */\n      add\n        /* \"#utility.yul\":1923:1929   */\n      dup5\n        /* \"#utility.yul\":1879:1950   */\n      tag_52\n      jump\t// in\n    tag_83:\n        /* \"#utility.yul\":1735:1957   */\n      swap3\n      swap2\n      pop\n      pop\n      jump\t// out\n        /* \"#utility.yul\":1963:2132   */\n    tag_53:\n        /* \"#utility.yul\":2047:2058   */\n      0x00\n        /* \"#utility.yul\":2081:2087   */\n      dup3\n        /* \"#utility.yul\":2076:2079   */\n      dup3\n        /* \"#utility.yul\":2069:2088   */\n      mstore\n        /* \"#utility.yul\":2121:2125   */\n      0x20\n        /* \"#utility.yul\":2116:2119   */\n      dup3\n        /* \"#utility.yul\":2112:2126   */\n      add\n        /* \"#utility.yul\":2097:2126   */\n      swap1\n      pop\n        /* \"#utility.yul\":1963:2132   */\n      swap3\n      swap2\n      pop\n      pop\n      jump\t// out\n        /* \"#utility.yul\":2138:2359   */\n    tag_54:\n        /* \"#utility.yul\":2278:2312   */\n      0x4f6e6c792061646d696e2063616e20706572666f726d20746869732061637469\n        /* \"#utility.yul\":2274:2275   */\n      0x00\n        /* \"#utility.yul\":2266:2272   */\n      dup3\n        /* \"#utility.yul\":2262:2276   */\n      add\n        /* \"#utility.yul\":2255:2313   */\n      mstore\n        /* \"#utility.yul\":2347:2351   */\n      0x6f6e000000000000000000000000000000000000000000000000000000000000\n        /* \"#utility.yul\":2342:2344   */\n      0x20\n        /* \"#utility.yul\":2334:2340   */\n      dup3\n        /* \"#utility.yul\":2330:2345   */\n      add\n        /* \"#utility.yul\":2323:2352   */\n      mstore\n        /* \"#utility.yul\":2138:2359   */\n      pop\n      jump\t// out\n        /* \"#utility.yul\":2365:2731   */\n    tag_55:\n        /* \"#utility.yul\":2507:2510   */\n      0x00\n        /* \"#utility.yul\":2528:2595   */\n      tag_87\n        /* \"#utility.yul\":2592:2594   */\n      0x22\n        /* \"#utility.yul\":2587:2590   */\n      dup4\n        /* \"#utility.yul\":2528:2595   */\n      tag_53\n      jump\t// in\n    tag_87:\n        /* \"#utility.yul\":2521:2595   */\n      swap2\n      pop\n        /* \"#utility.yul\":2604:2697   */\n      tag_88\n        /* \"#utility.yul\":2693:2696   */\n      dup3\n        /* \"#utility.yul\":2604:2697   */\n      tag_54\n      jump\t// in\n    tag_88:\n        /* \"#utility.yul\":2722:2724   */\n      0x40\n        /* \"#utility.yul\":2717:2720   */\n      dup3\n        /* \"#utility.yul\":2713:2725   */\n      add\n        /* \"#utility.yul\":2706:2725   */\n      swap1\n      pop\n        /* \"#utility.yul\":2365:2731   */\n      swap2\n      swap1\n      pop\n      jump\t// out\n        /* \"#utility.yul\":2737:3156   */\n    tag_26:\n        /* \"#utility.yul\":2903:2907   */\n      0x00\n        /* \"#utility.yul\":2941:2943   */\n      0x20\n        /* \"#utility.yul\":2930:2939   */\n      dup3\n        /* \"#utility.yul\":2926:2944   */\n      add\n        /* \"#utility.yul\":2918:2944   */\n      swap1\n      pop\n        /* \"#utility.yul\":2990:2999   */\n      dup2\n        /* \"#utility.yul\":2984:2988   */\n      dup2\n        /* \"#utility.yul\":2980:3000   */\n      sub\n        /* \"#utility.yul\":2976:2977   */\n      0x00\n        /* \"#utility.yul\":2965:2974   */\n      dup4\n        /* \"#utility.yul\":2961:2978   */\n      add\n        /* \"#utility.yul\":2954:3001   */\n      mstore\n        /* \"#utility.yul\":3018:3149   */\n      tag_90\n        /* \"#utility.yul\":3144:3148   */\n      dup2\n        /* \"#utility.yul\":3018:3149   */\n      tag_55\n      jump\t// in\n    tag_90:\n        /* \"#utility.yul\":3010:3149   */\n      swap1\n      pop\n        /* \"#utility.yul\":2737:3156   */\n      swap2\n      swap1\n      pop\n      jump\t// out\n        /* \"#utility.yul\":3162:3328   */\n    tag_56:\n        /* \"#utility.yul\":3302:3320   */\n      0x4e6f7420656e6f7567682066756e647300000000000000000000000000000000\n        /* \"#utility.yul\":3298:3299   */\n      0x00\n        /* \"#utility.yul\":3290:3296   */\n      dup3\n        /* \"#utility.yul\":3286:3300   */\n      add\n        /* \"#utility.yul\":3279:3321   */\n      mstore\n        /* \"#utility.yul\":3162:3328   */\n      pop\n      jump\t// out\n        /* \"#utility.yul\":3334:3700   */\n    tag_57:\n        /* \"#utility.yul\":3476:3479   */\n      0x00\n        /* \"#utility.yul\":3497:3564   */\n      tag_93\n        /* \"#utility.yul\":3561:3563   */\n      0x10\n        /* \"#utility.yul\":3556:3559   */\n      dup4\n        /* \"#utility.yul\":3497:3564   */\n      tag_53\n      jump\t// in\n    tag_93:\n        /* \"#utility.yul\":3490:3564   */\n      swap2\n      pop\n        /* \"#utility.yul\":3573:3666   */\n      tag_94\n        /* \"#utility.yul\":3662:3665   */\n      dup3\n        /* \"#utility.yul\":3573:3666   */\n      tag_56\n      jump\t// in\n    tag_94:\n        /* \"#utility.yul\":3691:3693   */\n      0x20\n        /* \"#utility.yul\":3686:3689   */\n      dup3\n        /* \"#utility.yul\":3682:3694   */\n      add\n        /* \"#utility.yul\":3675:3694   */\n      swap1\n      pop\n        /* \"#utility.yul\":3334:3700   */\n      swap2\n      swap1\n      pop\n      jump\t// out\n        /* \"#utility.yul\":3706:4125   */\n    tag_30:\n        /* \"#utility.yul\":3872:3876   */\n      0x00\n        /* \"#utility.yul\":3910:3912   */\n      0x20\n        /* \"#utility.yul\":3899:3908   */\n      dup3\n        /* \"#utility.yul\":3895:3913   */\n      add\n        /* \"#utility.yul\":3887:3913   */\n      swap1\n      pop\n        /* \"#utility.yul\":3959:3968   */\n      dup2\n        /* \"#utility.yul\":3953:3957   */\n      dup2\n        /* \"#utility.yul\":3949:3969   */\n      sub\n        /* \"#utility.yul\":3945:3946   */\n      0x00\n        /* \"#utility.yul\":3934:3943   */\n      dup4\n        /* \"#utility.yul\":3930:3947   */\n      add\n        /* \"#utility.yul\":3923:3970   */\n      mstore\n        /* \"#utility.yul\":3987:4118   */\n      tag_96\n        /* \"#utility.yul\":4113:4117   */\n      dup2\n        /* \"#utility.yul\":3987:4118   */\n      tag_57\n      jump\t// in\n    tag_96:\n        /* \"#utility.yul\":3979:4118   */\n      swap1\n      pop\n        /* \"#utility.yul\":3706:4125   */\n      swap2\n      swap1\n      pop\n      jump\t// out\n        /* \"#utility.yul\":4131:4311   */\n    tag_58:\n        /* \"#utility.yul\":4179:4256   */\n      0x4e487b7100000000000000000000000000000000000000000000000000000000\n        /* \"#utility.yul\":4176:4177   */\n      0x00\n        /* \"#utility.yul\":4169:4257   */\n      mstore\n        /* \"#utility.yul\":4276:4280   */\n      0x11\n        /* \"#utility.yul\":4273:4274   */\n      0x04\n        /* \"#utility.yul\":4266:4281   */\n      mstore\n        /* \"#utility.yul\":4300:4304   */\n      0x24\n        /* \"#utility.yul\":4297:4298   */\n      0x00\n        /* \"#utility.yul\":4290:4305   */\n      revert\n        /* \"#utility.yul\":4317:4511   */\n    tag_34:\n        /* \"#utility.yul\":4357:4361   */\n      0x00\n        /* \"#utility.yul\":4377:4397   */\n      tag_99\n        /* \"#utility.yul\":4395:4396   */\n      dup3\n        /* \"#utility.yul\":4377:4397   */\n      tag_46\n      jump\t// in\n    tag_99:\n        /* \"#utility.yul\":4372:4397   */\n      swap2\n      pop\n        /* \"#utility.yul\":4411:4431   */\n      tag_100\n        /* \"#utility.yul\":4429:4430   */\n      dup4\n        /* \"#utility.yul\":4411:4431   */\n      tag_46\n      jump\t// in\n    tag_100:\n        /* \"#utility.yul\":4406:4431   */\n      swap3\n      pop\n        /* \"#utility.yul\":4455:4456   */\n      dup3\n        /* \"#utility.yul\":4452:4453   */\n      dup3\n        /* \"#utility.yul\":4448:4457   */\n      sub\n        /* \"#utility.yul\":4440:4457   */\n      swap1\n      pop\n        /* \"#utility.yul\":4479:4480   */\n      dup2\n        /* \"#utility.yul\":4473:4477   */\n      dup2\n        /* \"#utility.yul\":4470:4481   */\n      gt\n        /* \"#utility.yul\":4467:4504   */\n      iszero\n      tag_101\n      jumpi\n        /* \"#utility.yul\":4484:4502   */\n      tag_102\n      tag_58\n      jump\t// in\n    tag_102:\n        /* \"#utility.yul\":4467:4504   */\n    tag_101:\n        /* \"#utility.yul\":4317:4511   */\n      swap3\n      swap2\n      pop\n      pop\n      jump\t// out\n        /* \"#utility.yul\":4517:4708   */\n    tag_41:\n        /* \"#utility.yul\":4557:4560   */\n      0x00\n        /* \"#utility.yul\":4576:4596   */\n      tag_104\n        /* \"#utility.yul\":4594:4595   */\n      dup3\n        /* \"#utility.yul\":4576:4596   */\n      tag_46\n      jump\t// in\n    tag_104:\n        /* \"#utility.yul\":4571:4596   */\n      swap2\n      pop\n        /* \"#utility.yul\":4610:4630   */\n      tag_105\n        /* \"#utility.yul\":4628:4629   */\n      dup4\n        /* \"#utility.yul\":4610:4630   */\n      tag_46\n      jump\t// in\n    tag_105:\n        /* \"#utility.yul\":4605:4630   */\n      swap3\n      pop\n        /* \"#utility.yul\":4653:4654   */\n      dup3\n        /* \"#utility.yul\":4650:4651   */\n      dup3\n        /* \"#utility.yul\":4646:4655   */\n      add\n        /* \"#utility.yul\":4639:4655   */\n      swap1\n      pop\n        /* \"#utility.yul\":4674:4677   */\n      dup1\n        /* \"#utility.yul\":4671:4672   */\n      dup3\n        /* \"#utility.yul\":4668:4678   */\n      gt\n        /* \"#utility.yul\":4665:4701   */\n      iszero\n      tag_106\n      jumpi\n        /* \"#utility.yul\":4681:4699   */\n      tag_107\n      tag_58\n      jump\t// in\n    tag_107:\n        /* \"#utility.yul\":4665:4701   */\n    tag_106:\n        /* \"#utility.yul\":4517:4708   */\n      swap3\n      swap2\n      pop\n      pop\n      jump\t// out\n\n    auxdata: 0xa2646970667358221220a2ad9905830e3ccef5b596e5f528bb1fbdd0558ec9961ae26a8735661cbe57bc64736f6c634300081a0033\n}\n",
				"bytecode": {
					"linkReferences": {},
					"object": "6080604052348015600e575f80fd5b50335f806101000a81548173ffffffffffffffffffffffffffffffffffffffff021916908373ffffffffffffffffffffffffffffffffffffffff1602179055506106078061005b5f395ff3fe60806040526004361061003e575f3560e01c8063155dd5ee14610042578063c89f2ce41461006a578063e2c41dbc14610094578063f851a4401461009e575b5f80fd5b34801561004d575f80fd5b506100686004803603810190610063919061038d565b6100c8565b005b348015610075575f80fd5b5061007e61024f565b60405161008b91906103c7565b60405180910390f35b61009c610255565b005b3480156100a9575f80fd5b506100b2610333565b6040516100bf919061041f565b60405180910390f35b5f8054906101000a900473ffffffffffffffffffffffffffffffffffffffff1673ffffffffffffffffffffffffffffffffffffffff163373ffffffffffffffffffffffffffffffffffffffff1614610155576040517f08c379a000000000000000000000000000000000000000000000000000000000815260040161014c906104b8565b60405180910390fd5b60015481111561019a576040517f08c379a000000000000000000000000000000000000000000000000000000000815260040161019190610520565b60405180910390fd5b5f8054906101000a900473ffffffffffffffffffffffffffffffffffffffff1673ffffffffffffffffffffffffffffffffffffffff166108fc8290811502906040515f60405180830381858888f193505050501580156101fc573d5f803e3d5ffd5b508060015f82825461020e919061056b565b925050819055507f4a37b25aab49761ecf63117fe82b98d750917451133cf797507bc9fb5b96044a8160405161024491906103c7565b60405180910390a150565b60015481565b5f8054906101000a900473ffffffffffffffffffffffffffffffffffffffff1673ffffffffffffffffffffffffffffffffffffffff163373ffffffffffffffffffffffffffffffffffffffff16146102e2576040517f08c379a00000000000000000000000000000000000000000000000000000000081526004016102d9906104b8565b60405180910390fd5b3460015f8282546102f3919061059e565b925050819055507f7cb5d45c1071f219bd2da1ea101758715bd52f23f2a707f2d9a0387dea18d9063460405161032991906103c7565b60405180910390a1565b5f8054906101000a900473ffffffffffffffffffffffffffffffffffffffff1681565b5f80fd5b5f819050919050565b61036c8161035a565b8114610376575f80fd5b50565b5f8135905061038781610363565b92915050565b5f602082840312156103a2576103a1610356565b5b5f6103af84828501610379565b91505092915050565b6103c18161035a565b82525050565b5f6020820190506103da5f8301846103b8565b92915050565b5f73ffffffffffffffffffffffffffffffffffffffff82169050919050565b5f610409826103e0565b9050919050565b610419816103ff565b82525050565b5f6020820190506104325f830184610410565b92915050565b5f82825260208201905092915050565b7f4f6e6c792061646d696e2063616e20706572666f726d207468697320616374695f8201527f6f6e000000000000000000000000000000000000000000000000000000000000602082015250565b5f6104a2602283610438565b91506104ad82610448565b604082019050919050565b5f6020820190508181035f8301526104cf81610496565b9050919050565b7f4e6f7420656e6f7567682066756e6473000000000000000000000000000000005f82015250565b5f61050a601083610438565b9150610515826104d6565b602082019050919050565b5f6020820190508181035f830152610537816104fe565b9050919050565b7f4e487b71000000000000000000000000000000000000000000000000000000005f52601160045260245ffd5b5f6105758261035a565b91506105808361035a565b92508282039050818111156105985761059761053e565b5b92915050565b5f6105a88261035a565b91506105b38361035a565b92508282019050808211156105cb576105ca61053e565b5b9291505056fea2646970667358221220a2ad9905830e3ccef5b596e5f528bb1fbdd0558ec9961ae26a8735661cbe57bc64736f6c634300081a0033",
					"opcodes": "PUSH1 0x80 PUSH1 0x40 MSTORE CALLVALUE DUP1 ISZERO PUSH1 0xE JUMPI PUSH0 DUP1 REVERT JUMPDEST POP CALLER PUSH0 DUP1 PUSH2 0x100 EXP DUP2 SLOAD DUP2 PUSH20 0xFFFFFFFFFFFFFFFFFFFFFFFFFFFFFFFFFFFFFFFF MUL NOT AND SWAP1 DUP4 PUSH20 0xFFFFFFFFFFFFFFFFFFFFFFFFFFFFFFFFFFFFFFFF AND MUL OR SWAP1 SSTORE POP PUSH2 0x607 DUP1 PUSH2 0x5B PUSH0 CODECOPY PUSH0 RETURN INVALID PUSH1 0x80 PUSH1 0x40 MSTORE PUSH1 0x4 CALLDATASIZE LT PUSH2 0x3E JUMPI PUSH0 CALLDATALOAD PUSH1 0xE0 SHR DUP1 PUSH4 0x155DD5EE EQ PUSH2 0x42 JUMPI DUP1 PUSH4 0xC89F2CE4 EQ PUSH2 0x6A JUMPI DUP1 PUSH4 0xE2C41DBC EQ PUSH2 0x94 JUMPI DUP1 PUSH4 0xF851A440 EQ PUSH2 0x9E JUMPI JUMPDEST PUSH0 DUP1 REVERT JUMPDEST CALLVALUE DUP1 ISZERO PUSH2 0x4D JUMPI PUSH0 DUP1 REVERT JUMPDEST POP PUSH2 0x68 PUSH1 0x4 DUP1 CALLDATASIZE SUB DUP2 ADD SWAP1 PUSH2 0x63 SWAP2 SWAP1 PUSH2 0x38D JUMP JUMPDEST PUSH2 0xC8 JUMP JUMPDEST STOP JUMPDEST CALLVALUE DUP1 ISZERO PUSH2 0x75 JUMPI PUSH0 DUP1 REVERT JUMPDEST POP PUSH2 0x7E PUSH2 0x24F JUMP JUMPDEST PUSH1 0x40 MLOAD PUSH2 0x8B SWAP2 SWAP1 PUSH2 0x3C7 JUMP JUMPDEST PUSH1 0x40 MLOAD DUP1 SWAP2 SUB SWAP1 RETURN JUMPDEST PUSH2 0x9C PUSH2 0x255 JUMP JUMPDEST STOP JUMPDEST CALLVALUE DUP1 ISZERO PUSH2 0xA9 JUMPI PUSH0 DUP1 REVERT JUMPDEST POP PUSH2 0xB2 PUSH2 0x333 JUMP JUMPDEST PUSH1 0x40 MLOAD PUSH2 0xBF SWAP2 SWAP1 PUSH2 0x41F JUMP JUMPDEST PUSH1 0x40 MLOAD DUP1 SWAP2 SUB SWAP1 RETURN JUMPDEST PUSH0 DUP1 SLOAD SWAP1 PUSH2 0x100 EXP SWAP1 DIV PUSH20 0xFFFFFFFFFFFFFFFFFFFFFFFFFFFFFFFFFFFFFFFF AND PUSH20 0xFFFFFFFFFFFFFFFFFFFFFFFFFFFFFFFFFFFFFFFF AND CALLER PUSH20 0xFFFFFFFFFFFFFFFFFFFFFFFFFFFFFFFFFFFFFFFF AND EQ PUSH2 0x155 JUMPI PUSH1 0x40 MLOAD PUSH32 0x8C379A000000000000000000000000000000000000000000000000000000000 DUP2 MSTORE PUSH1 0x4 ADD PUSH2 0x14C SWAP1 PUSH2 0x4B8 JUMP JUMPDEST PUSH1 0x40 MLOAD DUP1 SWAP2 SUB SWAP1 REVERT JUMPDEST PUSH1 0x1 SLOAD DUP2 GT ISZERO PUSH2 0x19A JUMPI PUSH1 0x40 MLOAD PUSH32 0x8C379A000000000000000000000000000000000000000000000000000000000 DUP2 MSTORE PUSH1 0x4 ADD PUSH2 0x191 SWAP1 PUSH2 0x520 JUMP JUMPDEST PUSH1 0x40 MLOAD DUP1 SWAP2 SUB SWAP1 REVERT JUMPDEST PUSH0 DUP1 SLOAD SWAP1 PUSH2 0x100 EXP SWAP1 DIV PUSH20 0xFFFFFFFFFFFFFFFFFFFFFFFFFFFFFFFFFFFFFFFF AND PUSH20 0xFFFFFFFFFFFFFFFFFFFFFFFFFFFFFFFFFFFFFFFF AND PUSH2 0x8FC DUP3 SWAP1 DUP2 ISZERO MUL SWAP1 PUSH1 0x40 MLOAD PUSH0 PUSH1 0x40 MLOAD DUP1 DUP4 SUB DUP2 DUP6 DUP9 DUP9 CALL SWAP4 POP POP POP POP ISZERO DUP1 ISZERO PUSH2 0x1FC JUMPI RETURNDATASIZE PUSH0 DUP1 RETURNDATACOPY RETURNDATASIZE PUSH0 REVERT JUMPDEST POP DUP1 PUSH1 0x1 PUSH0 DUP3 DUP3 SLOAD PUSH2 0x20E SWAP2 SWAP1 PUSH2 0x56B JUMP JUMPDEST SWAP3 POP POP DUP2 SWAP1 SSTORE POP PUSH32 0x4A37B25AAB49761ECF63117FE82B98D750917451133CF797507BC9FB5B96044A DUP2 PUSH1 0x40 MLOAD PUSH2 0x244 SWAP2 SWAP1 PUSH2 0x3C7 JUMP JUMPDEST PUSH1 0x40 MLOAD DUP1 SWAP2 SUB SWAP1 LOG1 POP JUMP JUMPDEST PUSH1 0x1 SLOAD DUP2 JUMP JUMPDEST PUSH0 DUP1 SLOAD SWAP1 PUSH2 0x100 EXP SWAP1 DIV PUSH20 0xFFFFFFFFFFFFFFFFFFFFFFFFFFFFFFFFFFFFFFFF AND PUSH20 0xFFFFFFFFFFFFFFFFFFFFFFFFFFFFFFFFFFFFFFFF AND CALLER PUSH20 0xFFFFFFFFFFFFFFFFFFFFFFFFFFFFFFFFFFFFFFFF AND EQ PUSH2 0x2E2 JUMPI PUSH1 0x40 MLOAD PUSH32 0x8C379A000000000000000000000000000000000000000000000000000000000 DUP2 MSTORE PUSH1 0x4 ADD PUSH2 0x2D9 SWAP1 PUSH2 0x4B8 JUMP JUMPDEST PUSH1 0x40 MLOAD DUP1 SWAP2 SUB SWAP1 REVERT JUMPDEST CALLVALUE PUSH1 0x1 PUSH0 DUP3 DUP3 SLOAD PUSH2 0x2F3 SWAP2 SWAP1 PUSH2 0x59E JUMP JUMPDEST SWAP3 POP POP DUP2 SWAP1 SSTORE POP PUSH32 0x7CB5D45C1071F219BD2DA1EA101758715BD52F23F2A707F2D9A0387DEA18D906 CALLVALUE PUSH1 0x40 MLOAD PUSH2 0x329 SWAP2 SWAP1 PUSH2 0x3C7 JUMP JUMPDEST PUSH1 0x40 MLOAD DUP1 SWAP2 SUB SWAP1 LOG1 JUMP JUMPDEST PUSH0 DUP1 SLOAD SWAP1 PUSH2 0x100 EXP SWAP1 DIV PUSH20 0xFFFFFFFFFFFFFFFFFFFFFFFFFFFFFFFFFFFFFFFF AND DUP2 JUMP JUMPDEST PUSH0 DUP1 REVERT JUMPDEST PUSH0 DUP2 SWAP1 POP SWAP2 SWAP1 POP JUMP JUMPDEST PUSH2 0x36C DUP2 PUSH2 0x35A JUMP JUMPDEST DUP2 EQ PUSH2 0x376 JUMPI PUSH0 DUP1 REVERT JUMPDEST POP JUMP JUMPDEST PUSH0 DUP2 CALLDATALOAD SWAP1 POP PUSH2 0x387 DUP2 PUSH2 0x363 JUMP JUMPDEST SWAP3 SWAP2 POP POP JUMP JUMPDEST PUSH0 PUSH1 0x20 DUP3 DUP5 SUB SLT ISZERO PUSH2 0x3A2 JUMPI PUSH2 0x3A1 PUSH2 0x356 JUMP JUMPDEST JUMPDEST PUSH0 PUSH2 0x3AF DUP5 DUP3 DUP6 ADD PUSH2 0x379 JUMP JUMPDEST SWAP2 POP POP SWAP3 SWAP2 POP POP JUMP JUMPDEST PUSH2 0x3C1 DUP2 PUSH2 0x35A JUMP JUMPDEST DUP3 MSTORE POP POP JUMP JUMPDEST PUSH0 PUSH1 0x20 DUP3 ADD SWAP1 POP PUSH2 0x3DA PUSH0 DUP4 ADD DUP5 PUSH2 0x3B8 JUMP JUMPDEST SWAP3 SWAP2 POP POP JUMP JUMPDEST PUSH0 PUSH20 0xFFFFFFFFFFFFFFFFFFFFFFFFFFFFFFFFFFFFFFFF DUP3 AND SWAP1 POP SWAP2 SWAP1 POP JUMP JUMPDEST PUSH0 PUSH2 0x409 DUP3 PUSH2 0x3E0 JUMP JUMPDEST SWAP1 POP SWAP2 SWAP1 POP JUMP JUMPDEST PUSH2 0x419 DUP2 PUSH2 0x3FF JUMP JUMPDEST DUP3 MSTORE POP POP JUMP JUMPDEST PUSH0 PUSH1 0x20 DUP3 ADD SWAP1 POP PUSH2 0x432 PUSH0 DUP4 ADD DUP5 PUSH2 0x410 JUMP JUMPDEST SWAP3 SWAP2 POP POP JUMP JUMPDEST PUSH0 DUP3 DUP3 MSTORE PUSH1 0x20 DUP3 ADD SWAP1 POP SWAP3 SWAP2 POP POP JUMP JUMPDEST PUSH32 0x4F6E6C792061646D696E2063616E20706572666F726D20746869732061637469 PUSH0 DUP3 ADD MSTORE PUSH32 0x6F6E000000000000000000000000000000000000000000000000000000000000 PUSH1 0x20 DUP3 ADD MSTORE POP JUMP JUMPDEST PUSH0 PUSH2 0x4A2 PUSH1 0x22 DUP4 PUSH2 0x438 JUMP JUMPDEST SWAP2 POP PUSH2 0x4AD DUP3 PUSH2 0x448 JUMP JUMPDEST PUSH1 0x40 DUP3 ADD SWAP1 POP SWAP2 SWAP1 POP JUMP JUMPDEST PUSH0 PUSH1 0x20 DUP3 ADD SWAP1 POP DUP2 DUP2 SUB PUSH0 DUP4 ADD MSTORE PUSH2 0x4CF DUP2 PUSH2 0x496 JUMP JUMPDEST SWAP1 POP SWAP2 SWAP1 POP JUMP JUMPDEST PUSH32 0x4E6F7420656E6F7567682066756E647300000000000000000000000000000000 PUSH0 DUP3 ADD MSTORE POP JUMP JUMPDEST PUSH0 PUSH2 0x50A PUSH1 0x10 DUP4 PUSH2 0x438 JUMP JUMPDEST SWAP2 POP PUSH2 0x515 DUP3 PUSH2 0x4D6 JUMP JUMPDEST PUSH1 0x20 DUP3 ADD SWAP1 POP SWAP2 SWAP1 POP JUMP JUMPDEST PUSH0 PUSH1 0x20 DUP3 ADD SWAP1 POP DUP2 DUP2 SUB PUSH0 DUP4 ADD MSTORE PUSH2 0x537 DUP2 PUSH2 0x4FE JUMP JUMPDEST SWAP1 POP SWAP2 SWAP1 POP JUMP JUMPDEST PUSH32 0x4E487B7100000000000000000000000000000000000000000000000000000000 PUSH0 MSTORE PUSH1 0x11 PUSH1 0x4 MSTORE PUSH1 0x24 PUSH0 REVERT JUMPDEST PUSH0 PUSH2 0x575 DUP3 PUSH2 0x35A JUMP JUMPDEST SWAP2 POP PUSH2 0x580 DUP4 PUSH2 0x35A JUMP JUMPDEST SWAP3 POP DUP3 DUP3 SUB SWAP1 POP DUP2 DUP2 GT ISZERO PUSH2 0x598 JUMPI PUSH2 0x597 PUSH2 0x53E JUMP JUMPDEST JUMPDEST SWAP3 SWAP2 POP POP JUMP JUMPDEST PUSH0 PUSH2 0x5A8 DUP3 PUSH2 0x35A JUMP JUMPDEST SWAP2 POP PUSH2 0x5B3 DUP4 PUSH2 0x35A JUMP JUMPDEST SWAP3 POP DUP3 DUP3 ADD SWAP1 POP DUP1 DUP3 GT ISZERO PUSH2 0x5CB JUMPI PUSH2 0x5CA PUSH2 0x53E JUMP JUMPDEST JUMPDEST SWAP3 SWAP2 POP POP JUMP INVALID LOG2 PUSH5 0x6970667358 0x22 SLT KECCAK256 LOG2 0xAD SWAP10 SDIV DUP4 0xE EXTCODECOPY 0xCE CREATE2 0xB5 SWAP7 0xE5 CREATE2 0x28 0xBB 0x1F 0xBD 0xD0 SSTORE DUP15 0xC9 SWAP7 BYTE 0xE2 PUSH11 0x8735661CBE57BC64736F6C PUSH4 0x4300081A STOP CALLER "
				},
				"gasEstimates": {
					"creation": {
						"codeDepositCost": "308600",
						"executionCost": "24612",
						"totalCost": "333212"
					},
					"external": {
						"admin()": "2549",
						"depositFunds()": "infinite",
						"funds()": "2425",
						"withdrawFunds(uint256)": "infinite"
					}
				},
				"methodIdentifiers": {
					"admin()": "f851a440",
					"depositFunds()": "e2c41dbc",
					"funds()": "c89f2ce4",
					"withdrawFunds(uint256)": "155dd5ee"
				}
			},
			"storageLayout": {
				"storage": [
					{
						"astId": 3,
						"contract": "contracts/TreasuryManagement.sol:TreasuryManagement",
						"label": "admin",
						"offset": 0,
						"slot": "0",
						"type": "t_address"
					},
					{
						"astId": 5,
						"contract": "contracts/TreasuryManagement.sol:TreasuryManagement",
						"label": "funds",
						"offset": 0,
						"slot": "1",
						"type": "t_uint256"
					}
				],
				"types": {
					"t_address": {
						"encoding": "inplace",
						"label": "address",
						"numberOfBytes": "20"
					},
					"t_uint256": {
						"encoding": "inplace",
						"label": "uint256",
						"numberOfBytes": "32"
					}
				}
			},
			"userdoc": {
				"kind": "user",
				"methods": {},
				"version": 1
			}
		}
	}
}